{
  "_format": "hh-sol-artifact-1",
  "contractName": "GenomicDataRollup",
  "sourceName": "contracts/GenomicDataRollup.sol",
  "abi": [
    {
      "inputs": [],
      "stateMutability": "nonpayable",
      "type": "constructor"
    },
    {
      "anonymous": false,
      "inputs": [
        {
          "indexed": false,
          "internalType": "bytes32",
          "name": "oldRoot",
          "type": "bytes32"
        },
        {
          "indexed": false,
          "internalType": "bytes32",
          "name": "newRoot",
          "type": "bytes32"
        }
      ],
      "name": "MerkleRootUpdated",
      "type": "event"
    },
    {
      "anonymous": false,
      "inputs": [
        {
          "indexed": true,
          "internalType": "address",
          "name": "oldOwner",
          "type": "address"
        },
        {
          "indexed": true,
          "internalType": "address",
          "name": "newOwner",
          "type": "address"
        }
      ],
      "name": "OwnerChanged",
      "type": "event"
    },
    {
      "inputs": [],
      "name": "merkleRoot",
      "outputs": [
        {
          "internalType": "bytes32",
          "name": "",
          "type": "bytes32"
        }
      ],
      "stateMutability": "view",
      "type": "function"
    },
    {
      "inputs": [],
      "name": "owner",
      "outputs": [
        {
          "internalType": "address",
          "name": "",
          "type": "address"
        }
      ],
      "stateMutability": "view",
      "type": "function"
    },
    {
      "inputs": [
        {
          "internalType": "address",
          "name": "newOwner",
          "type": "address"
        }
      ],
      "name": "transferOwnership",
      "outputs": [],
      "stateMutability": "nonpayable",
      "type": "function"
    },
    {
      "inputs": [
        {
          "internalType": "bytes32",
          "name": "_newRoot",
          "type": "bytes32"
        }
      ],
      "name": "updateMerkleRoot",
      "outputs": [],
      "stateMutability": "nonpayable",
      "type": "function"
    },
    {
      "inputs": [
        {
          "internalType": "bytes32",
          "name": "leaf",
          "type": "bytes32"
        },
        {
          "internalType": "bytes32[]",
          "name": "proof",
          "type": "bytes32[]"
        }
      ],
      "name": "verifyMembership",
      "outputs": [
        {
          "internalType": "bool",
          "name": "",
          "type": "bool"
        }
      ],
      "stateMutability": "view",
      "type": "function"
    }
  ],
  "bytecode": "0x608060405234801561001057600080fd5b50600080546001600160a01b03191633179055610484806100326000396000f3fe608060405234801561001057600080fd5b50600436106100575760003560e01c80632eb4a7ab1461005c5780634783f0ef1461007a5780638da5cb5b1461008f578063e305d023146100a4578063f2fde38b146100c4575b600080fd5b6100646100d7565b60405161007191906103b2565b60405180910390f35b61008d6100883660046102f4565b6100dd565b005b610097610150565b6040516100719190610393565b6100b76100b236600461030c565b61015f565b60405161007191906103a7565b61008d6100d23660046102c6565b61021b565b60015481565b6000546001600160a01b031633146101105760405162461bcd60e51b8152600401610107906103bb565b60405180910390fd5b7ffd69edeceaf1d6832d935be1fba54ca93bf17e71520c6c9ffc08d6e9529f875760015482604051610143929190610385565b60405180910390a1600155565b6000546001600160a01b031681565b600083815b8381101561020e57600085858381811061018e57634e487b7160e01b600052603260045260246000fd5b905060200201359050808310156101cf5782816040516020016101b2929190610385565b6040516020818303038152906040528051906020012092506101fb565b80836040516020016101e2929190610385565b6040516020818303038152906040528051906020012092505b508061020681610427565b915050610164565b5060015414949350505050565b6000546001600160a01b031633146102455760405162461bcd60e51b8152600401610107906103bb565b6001600160a01b03811661026b5760405162461bcd60e51b8152600401610107906103fc565b600080546040516001600160a01b03808516939216917fb532073b38c83145e3e5135377a08bf9aab55bc0fd7c1179cd4fb995d2a5159c91a3600080546001600160a01b0319166001600160a01b0392909216919091179055565b6000602082840312156102d7578081fd5b81356001600160a01b03811681146102ed578182fd5b9392505050565b600060208284031215610305578081fd5b5035919050565b600080600060408486031215610320578182fd5b83359250602084013567ffffffffffffffff8082111561033e578384fd5b818601915086601f830112610351578384fd5b81358181111561035f578485fd5b8760208083028501011115610372578485fd5b6020830194508093505050509250925092565b918252602082015260400190565b6001600160a01b0391909116815260200190565b901515815260200190565b90815260200190565b60208082526021908201527f4f6e6c79206f776e65722063616e2063616c6c20746869732066756e6374696f6040820152603760f91b606082015260800190565b60208082526011908201527024b73b30b634b2103732bb9037bbb732b960791b604082015260600190565b600060001982141561044757634e487b7160e01b81526011600452602481fd5b506001019056fea2646970667358221220df279c54d564f290bfdbc3b5d79d90576889a7e082a0b94ac168954b582dbfe964736f6c63430008000033",
  "linkReferences": {},
  "deployedLinkReferences": {}
}