{"contracts/Counter.sol":{"Counter":{"abi":[{"inputs":[],"stateMutability":"nonpayable","type":"constructor"},{"inputs":[{"internalType":"int256","name":"n","type":"int256"}],"name":"decrement","outputs":[],"stateMutability":"nonpayable","type":"function"},{"inputs":[{"internalType":"int256","name":"n","type":"int256"}],"name":"increment","outputs":[],"stateMutability":"nonpayable","type":"function"},{"inputs":[{"internalType":"int256","name":"x","type":"int256"}],"name":"initialize","outputs":[],"stateMutability":"nonpayable","type":"function"},{"inputs":[],"name":"value","outputs":[{"internalType":"int256","name":"","type":"int256"}],"stateMutability":"view","type":"function"}],"evm":{"bytecode":{"linkReferences":{},"object":"608060405234801561001057600080fd5b50600180546001600160a01b03191633179055610242806100326000396000f3fe608060405234801561001057600080fd5b506004361061004c5760003560e01c80633fa4f2451461005157806359664f341461006f578063c03c300314610084578063db7dd6b514610097575b600080fd5b6100596100aa565b6040516100669190610122565b60405180910390f35b61008261007d36600461010a565b6100b0565b005b61008261009236600461010a565b6100e8565b6100826100a536600461010a565b6100fc565b60005481565b6001546001600160a01b031633146100e35760405162461bcd60e51b81526004016100da9061012b565b60405180910390fd5b600055565b806000546100f69190610176565b60005550565b806000546100f691906101b7565b60006020828403121561011b578081fd5b5035919050565b90815260200190565b6020808252602b908201527f4f6e6c7920746865206f7267616e697a65722063616e20706572666f726d207460408201526a3434b99030b1ba34b7b71760a91b606082015260800190565b600080821280156001600160ff1b0384900385131615610198576101986101f6565b600160ff1b83900384128116156101b1576101b16101f6565b50500190565b60008083128015600160ff1b8501841216156101d5576101d56101f6565b6001600160ff1b03840183138116156101f0576101f06101f6565b50500390565b634e487b7160e01b600052601160045260246000fdfea26469706673582212206a789c38350cd3bfc07156073571b4cad30b4cb0f161b3d4bd747ceda4db30b964736f6c63430008000033","opcodes":"PUSH1 0x80 PUSH1 0x40 MSTORE CALLVALUE DUP1 ISZERO PUSH2 0x10 JUMPI PUSH1 0x0 DUP1 REVERT JUMPDEST POP PUSH1 0x1 DUP1 SLOAD PUSH1 0x1 PUSH1 0x1 PUSH1 0xA0 SHL SUB NOT AND CALLER OR SWAP1 SSTORE PUSH2 0x242 DUP1 PUSH2 0x32 PUSH1 0x0 CODECOPY PUSH1 0x0 RETURN INVALID PUSH1 0x80 PUSH1 0x40 MSTORE CALLVALUE DUP1 ISZERO PUSH2 0x10 JUMPI PUSH1 0x0 DUP1 REVERT JUMPDEST POP PUSH1 0x4 CALLDATASIZE LT PUSH2 0x4C JUMPI PUSH1 0x0 CALLDATALOAD PUSH1 0xE0 SHR DUP1 PUSH4 0x3FA4F245 EQ PUSH2 0x51 JUMPI DUP1 PUSH4 0x59664F34 EQ PUSH2 0x6F JUMPI DUP1 PUSH4 0xC03C3003 EQ PUSH2 0x84 JUMPI DUP1 PUSH4 0xDB7DD6B5 EQ PUSH2 0x97 JUMPI JUMPDEST PUSH1 0x0 DUP1 REVERT JUMPDEST PUSH2 0x59 PUSH2 0xAA JUMP JUMPDEST PUSH1 0x40 MLOAD PUSH2 0x66 SWAP2 SWAP1 PUSH2 0x122 JUMP JUMPDEST PUSH1 0x40 MLOAD DUP1 SWAP2 SUB SWAP1 RETURN JUMPDEST PUSH2 0x82 PUSH2 0x7D CALLDATASIZE PUSH1 0x4 PUSH2 0x10A JUMP JUMPDEST PUSH2 0xB0 JUMP JUMPDEST STOP JUMPDEST PUSH2 0x82 PUSH2 0x92 CALLDATASIZE PUSH1 0x4 PUSH2 0x10A JUMP JUMPDEST PUSH2 0xE8 JUMP JUMPDEST PUSH2 0x82 PUSH2 0xA5 CALLDATASIZE PUSH1 0x4 PUSH2 0x10A JUMP JUMPDEST PUSH2 0xFC JUMP JUMPDEST PUSH1 0x0 SLOAD DUP2 JUMP JUMPDEST PUSH1 0x1 SLOAD PUSH1 0x1 PUSH1 0x1 PUSH1 0xA0 SHL SUB AND CALLER EQ PUSH2 0xE3 JUMPI PUSH1 0x40 MLOAD PUSH3 0x461BCD PUSH1 0xE5 SHL DUP2 MSTORE PUSH1 0x4 ADD PUSH2 0xDA SWAP1 PUSH2 0x12B JUMP JUMPDEST PUSH1 0x40 MLOAD DUP1 SWAP2 SUB SWAP1 REVERT JUMPDEST PUSH1 0x0 SSTORE JUMP JUMPDEST DUP1 PUSH1 0x0 SLOAD PUSH2 0xF6 SWAP2 SWAP1 PUSH2 0x176 JUMP JUMPDEST PUSH1 0x0 SSTORE POP JUMP JUMPDEST DUP1 PUSH1 0x0 SLOAD PUSH2 0xF6 SWAP2 SWAP1 PUSH2 0x1B7 JUMP JUMPDEST PUSH1 0x0 PUSH1 0x20 DUP3 DUP5 SUB SLT ISZERO PUSH2 0x11B JUMPI DUP1 DUP2 REVERT JUMPDEST POP CALLDATALOAD SWAP2 SWAP1 POP JUMP JUMPDEST SWAP1 DUP2 MSTORE PUSH1 0x20 ADD SWAP1 JUMP JUMPDEST PUSH1 0x20 DUP1 DUP3 MSTORE PUSH1 0x2B SWAP1 DUP3 ADD MSTORE PUSH32 0x4F6E6C7920746865206F7267616E697A65722063616E20706572666F726D2074 PUSH1 0x40 DUP3 ADD MSTORE PUSH11 0x3434B99030B1BA34B7B717 PUSH1 0xA9 SHL PUSH1 0x60 DUP3 ADD MSTORE PUSH1 0x80 ADD SWAP1 JUMP JUMPDEST PUSH1 0x0 DUP1 DUP3 SLT DUP1 ISZERO PUSH1 0x1 PUSH1 0x1 PUSH1 0xFF SHL SUB DUP5 SWAP1 SUB DUP6 SGT AND ISZERO PUSH2 0x198 JUMPI PUSH2 0x198 PUSH2 0x1F6 JUMP JUMPDEST PUSH1 0x1 PUSH1 0xFF SHL DUP4 SWAP1 SUB DUP5 SLT DUP2 AND ISZERO PUSH2 0x1B1 JUMPI PUSH2 0x1B1 PUSH2 0x1F6 JUMP JUMPDEST POP POP ADD SWAP1 JUMP JUMPDEST PUSH1 0x0 DUP1 DUP4 SLT DUP1 ISZERO PUSH1 0x1 PUSH1 0xFF SHL DUP6 ADD DUP5 SLT AND ISZERO PUSH2 0x1D5 JUMPI PUSH2 0x1D5 PUSH2 0x1F6 JUMP JUMPDEST PUSH1 0x1 PUSH1 0x1 PUSH1 0xFF SHL SUB DUP5 ADD DUP4 SGT DUP2 AND ISZERO PUSH2 0x1F0 JUMPI PUSH2 0x1F0 PUSH2 0x1F6 JUMP JUMPDEST POP POP SUB SWAP1 JUMP JUMPDEST PUSH4 0x4E487B71 PUSH1 0xE0 SHL PUSH1 0x0 MSTORE PUSH1 0x11 PUSH1 0x4 MSTORE PUSH1 0x24 PUSH1 0x0 REVERT INVALID LOG2 PUSH5 0x6970667358 0x22 SLT KECCAK256 PUSH11 0x789C38350CD3BFC0715607 CALLDATALOAD PUSH18 0xB4CAD30B4CB0F161B3D4BD747CEDA4DB30B9 PUSH5 0x736F6C6343 STOP ADDMOD STOP STOP CALLER "},"methodIdentifiers":{"decrement(int256)":"db7dd6b5","increment(int256)":"c03c3003","initialize(int256)":"59664f34","value()":"3fa4f245"}}}}}